:020000040800F2
:10000000100A0020010100082B230008731D0008BE
:1000100029230008090300083D260008000000000D
:100020000000000000000000000000002F23000876
:100030000B030008000000002D23000831230008F6
:100040001B0100081B0100081B0100081B01000820
:100050001B0100081B0100081B0100081B01000810
:100060001B0100081B0100081B0100081B01000800
:100070001B0100081B0100081B0100081B010008F0
:100080001B0100081B0100081B0100081B010008E0
:100090001B0100081B0100081B0100081B010008D0
:1000A0001B0100081B0100081B0100081B010008C0
:1000B0001B0100081B0100081B0100081B010008B0
:1000C0001B0100081B0100081B0100081B010008A0
:1000D0001B0100081B0100081B0100083126000855
:1000E0001B0100081B0100081B010008DFF80CD0F1
:1000F00000F07EF80048004771320008100A002026
:100100000648804706480047FEE7FEE7FEE7FEE7B1
:10011000FEE7FEE7FEE7FEE7FEE7FEE7AD230008A9
:10012000ED000008202A04DB203A21FA02F0002129
:10013000704721FA02F3D040C2F1200291400843F7
:100140001946704740EA01039B0703D009E008C93C
:10015000121F08C0042AFAD203E011F8013B00F88C
:10016000013B521EF9D27047D2B201E000F8012BD8
:10017000491EFBD270470022F6E710B513460A4627
:1001800004461946FFF7F0FF204610BD2DE9F05F49
:100190000546002092469B468846064681464024F6
:1001A0001BE02846414647462246FFF7BBFF534621
:1001B0005A46C01A914110D311461846224600F003
:1001C00029F82D1A67EB01084F462246012000212D
:1001D00000F020F817EB00094E41201EA4F10104A5
:1001E000DFDC484631462A464346BDE8F09F000022
:1001F000064C074D06E0E06840F0010394E8070074
:1002000098471034AC42F6D3FFF774FFBC370008B0
:10021000DC370008202A04DB203A00FA02F1002033
:1002200070479140C2F1200320FA03F31943904034
:100230007047000070B5044600688168C943C9076B
:1002400017D1816821F00101816000F0A9FC054609
:100250000AE000BF00F0A4FC401B022804D920687B
:100260008068C043C00706D020688068C043C007CC
:10027000F0D0002070BDA06A40F01000A062E06ADB
:1002800040F00100E062012070BD0000F8B50026DA
:100290000446009600688168C943C9072DD081686B
:1002A00041F001018160164816490068B0FBF1F089
:1002B00000E0401E00900028FBD100F071FC0546D4
:1002C00016E000BF00F06CFC401B022810D920682B
:1002D0008068C043C0070BD0A06A40F01000A06245
:1002E000E06A40F00100E06284F824600120F8BD7B
:1002F00020688068C043C007E4D10020F8BD00003A
:100300000C00002040420F00FEE7704772B6FEE787
:10031000F8B500250446009590F8240001280BD07C
:10032000012084F824002046FFF784FF2046FFF7D1
:10033000ADFF060002D050E00220F8BDA06A20F414
:10034000885040F00200A062022000F091FF254991
:100350000968B1FBF0F0400000E0401E009000286A
:10036000FBD12068816841F00801816000F018FC31
:10037000074608E000F014FCC01B0A2803D92068D7
:100380008068000715D4206880680007F2D42068D0
:10039000816841F00401816000F002FC074612E030
:1003A00000F0FEFBC01B0A280DD9206880684007BA
:1003B00009D5A06A20F0020040F01000A06284F885
:1003C00024500120F8BD206880684007E8D4A06A66
:1003D00020F0020040F00100A06284F82450304672
:1003E000F8BD00000C000020F8B50024009490F83F
:1003F00024202546012A12D0012280F824204A68B0
:100400001F23072A0DD20668776B521E02EB820269
:1004100093409F430B6893401F43776319E002208A
:10042000F8BD06680D2A0AD2376BD21F02EB820292
:1004300093409F430B6893401F43376309E0F76A7B
:100440000D3A02EB820293409F430B6893401F4397
:10045000F7620A68072306680A2A0AD3F7680A3A85
:1004600002EB420293409F438B6893401F43F76027
:1004700008E0376902EB420293409F438B68934048
:100480001F4337610A68102A01D0112A20D1124B6C
:1004900002689A4217D193681B0219D4936843F4F7
:1004A000000393600968102912D10C490C4A0968AD
:1004B000B1FBF2F101EB8101490000E0491E00911E
:1004C0000029FBD104E0816A41F02001816201240E
:1004D00080F824502046F8BD002401400C00002084
:1004E00040420F000068C06C704700002DE9F041E9
:1004F0004FF0000704003D467ED0A06A002628B9D0
:10050000E66284F82460204600F07EF82046FFF77B
:1005100091FEA16AC90600D420B1A06A40F0100083
:10052000A06269E0A16A21F4885141F00201A16250
:100530006268E169237B0A4347EA43010A43A168F1
:100540004FF48077B94209D0012907D05FF000014C
:1005500094F814C0BCF1010F02D00AE03946F7E765
:10056000F3B1A36A43F02003A362E36A43F00103FB
:10057000E3622368D3F804C02CF4694C4CEA010C04
:10058000C3F804C021688B68DFF870C003EA0C036D
:1005900013438B60A168B9420BD0012909D00CE04C
:1005A000DFF85CC0A3690CEB43330B4343F40061F9
:1005B000DFE7218A0D05A5F580152168CB6A23F4B4
:1005C00070032B43CB62216889680E4B194091421E
:1005D00008D1E662A16A21F0020141F00101A162A5
:1005E000BDE8F081A06A20F0020040F01000A06297
:1005F000E06A40F00100E0620120F1E7FDF7E1FF71
:1006000000E0FFFFFE0E1FFF10B586B00021009135
:1006100001910291039100681549884226D115483D
:10062000816941F400718161816901F40071049173
:10063000816941F004018161816901F00401049143
:10064000816941F0080181618069032400F008009C
:100650000490FF20CDE900046946074800F0AAF99C
:10066000009469460548019400F0A4F906B010BD55
:10067000002401400010024000080140000C01402D
:100680002DE9F84300270D460446009700F088FA4C
:10069000804620688168C90508D5A06A40F020001E
:1006A000A06284F824700120BDE8F8834168C90580
:1006B00003D4C06A10F4700F2AD0022000F0D8FDD5
:1006C0003B490968B1FBF0F62068036939490B42E0
:1006D0004FEA61014FEAA1121FD1C3684FEA611CC2
:1006E00013EA0C0F19D103690B4225D1C0681042DF
:1006F00022D1142023E0681C0AD02DB100F050FA5A
:10070000A0EB0800A84203D920680068800725D51F
:10071000206800688007EED52DE003690B4202D106
:10072000C168114206D0026923490A4206D1C06855
:10073000084203D1542002E0292000E0FC20464377
:10074000009816E0681C11D02DB100F029FAA0EB3A
:100750000800A8420AD90098B04207D2A06A40F027
:100760000400A06284F8247003209DE70098401CD8
:100770000090B042E6D321686FF012000860A06AD2
:1007800040F40070A06220688068C0F342400728EF
:100790000CD1207B50B9A06A20F48070A062A06ABE
:1007A000C00403D4A06A40F00100A06200207BE7EF
:1007B0000C000020244992244992240070B504467C
:1007C00090F8240001280DD0012084F82400204650
:1007D000FFF75CFD02004FF0000005D084F8240014
:1007E000104670BD022070BDA16A40F201239943FA
:1007F00041F48071A1621F4D23681F49AB4218D19B
:100800000E6816F4702F14D0A66A46F48016A662FD
:100810000E68760505D5A66A26F4005646F480567D
:10082000A662A66AF6040AD5E66A26F00606E6621D
:1008300006E0A66A26F48016A6625E68E9E7E06232
:1008400084F824006FF00200186020688368C3F306
:100850004243072B05D1A84208D1096811F4702F33
:1008600004D0816841F480118160B9E7816841F466
:10087000A001F9E7002801400424014010B5044616
:1008800090F82400012807D0012084F82400204695
:10089000FFF7D0FC10B107E0022010BDA16A21F4DF
:1008A000885141F00101A162002184F8241010BD9B
:1008B00010B590F821100022022905D0042181638F
:1008C00080F82020012010BD01680B6823F00E0382
:1008D0000B6001680B6823F001030B6090F8403057
:1008E000C46B012101FA03F3636080F8211080F8E2
:1008F0002020104610BD000010B590F821100024F3
:10090000022903D00421816301243DE001680A68C3
:1009100022F00E020A6001680A6822F001020A60F1
:100920001A4A0168914201D1012121E0174A14328B
:10093000914201D110211BE0144A2832914201D189
:10094000891515E0114A3C32914201D189140FE01A
:100950000E4A5032914202D14FF4803108E00B4AE6
:100960006432914202D14FF4801101E04FF0807166
:10097000064A083A5160012180F82110002180F8D0
:100980002010416B01B18847204610BD080002408D
:1009900070B5044600F004F90546601C02D0044816
:1009A0000078044400F0FCF8401BA042FAD370BD6C
:1009B000000000202DE9F84FDFF8B8910024A9F1DC
:1009C000040B23460F2709F1040AABF1040EC9E01A
:1009D0000125A5402A40AA427DD1674ED1F804C026
:1009E000ACEB0608B44532D014DCBCF1030F3AD0AE
:1009F00009DCBCF1000F2AD0BCF1010F1CD0BCF106
:100A0000020F31D11DE0BCF1110F17D0BCF1120F54
:100A10002AD119E0B8F5881F19D006DCB8F5803F57
:100A200015D0B8F5801F1FD111E0B8F5001F0ED00A
:100A3000B8F5041F18D10AE0CB6815E0CB681B1D80
:100A400012E0CB6808330FE0CB680C330CE08B6806
:100A50002BB1012B4FF0080303D0456104E00423C0
:100A600002E0056100E00023FF2A01D8064601E00C
:100A700000F104064FEA840501D9A5F12005D6F856
:100A8000008007FA05FC28EA0C0803FA05F548EA95
:100A90000508C6F800804D68ED0062D5374DAE6997
:100AA00046F00106AE61AD6924F0030605F00105CC
:100AB0000095334D06EB050CDCF80850A607360F01
:100AC00007FA06F825EA0805DFF8B880404503D1A3
:100AD0004FF0000817E044E0DFF8AC80404502D159
:100AE0004FF001080FE0DFF8A480404502D14FF03D
:100AF000020808E0DFF89880404502D14FF0030873
:100B000001E04FF0040808FA06F848EA0508CCF8B6
:100B100008804D68D9F80060ED024D4601D51643B6
:100B200000E096432E604D68DAF80060AD0255464D
:100B300001D5164300E096432E604D68DBF8006057
:100B4000AD035D4601D5164300E096432E604D6827
:100B5000DEF80060ED03754601D5164300E09643CC
:100B60002E60641C0D682A46E5407FF431AFBDE875
:100B7000F88F00000804014000001110001002402E
:100B80000000014000080140000C0140001001403D
:100B9000001401400AB1016170470904FBE700003D
:100BA00001488068704700000000002070B5040014
:100BB00025D094F83D00002520B984F83C5020460B
:100BC00000F07EFA242084F83D002068016821F0BE
:100BD000010101602068016841F400410160206862
:100BE000016821F40041016000F0A0FC4D4A6168F9
:100BF000914201D84C4900E04C49884201D2012081
:100C000070BD4B492368B0FBF1F15E6826F03F06EA
:100C10000E435E606368934206D94FF4967359435E
:100C20004FF47A73B1FBF3F12368491C1E6A26F076
:100C30003F06314319626168914210D84900401E55
:100C4000B0FBF1F2521CC2F30B02042A01D20420C1
:100C500022E0B0FBF1F0401CC0F30B001CE0A268E6
:100C6000F2B301EBC10303EB0116431EB3FBF6F332
:100C70005B1C43F480431B0549D092B301EBC102D6
:100C800002EB0111401EB0FBF1F0401CC0F30B0061
:100C900040F4804040F400402168CA694CF6FF737C
:100CA0009A431043C861D4E90710014320680268E1
:100CB00022F0C00211430160D4E90301014320681E
:100CC000826848F2FF339A4311438160D4E90501F9
:100CD00008432168CA6822F0FF021043C86001E09F
:100CE0000EE016E02068016841F001010160256412
:100CF000202084F83D00256384F83E50002070BD1C
:100D000001EB4106431EB3FBF6F35B1CB3E7012086
:100D1000C2E701EB4101401EB0FBF1F0401CC0F303
:100D20000B00B7E7A086010080841E0000093D008B
:100D300040420F002DE9FF4F83B00025DDE9107917
:100D40009A4693460446DDF848800095FFF728FF51
:100D5000064694F83D0020287CD1192301228849B9
:100D60002046009601F01CF90028F5D194F83C00CB
:100D700001286FD0012084F83C0020680168C90771
:100D800003D1016841F0010101602068016821F48C
:100D900000610160222084F83D00402084F83E007C
:100DA00025646762A4F82A90608D20857548E0620A
:100DB000CDE9008653465A462046049900F0F2FFDA
:100DC00000287CD1208DDFF8C091202768B1012850
:100DD00014D00228206801681ED041F480610160AF
:100DE0002068416980690090BCE0206841698169A0
:100DF0000091016841F400710160B3E0206801686E
:100E000021F48061016072B62068416981690091B6
:100E1000016841F400710AE041F40061016072B6BA
:100E20002068416981690091016821F48061016055
:100E300062B697E0032865D801280CD00228434603
:100E40004FF000024946204600960BD001F0A8F86A
:100E5000A8BB0CE091E032464146204601F046F93D
:100E600068BB72E001F09CF848BB72B633E02068C2
:100E7000016821F48061016072B620680069616ACE
:100E80000870606A401C6062208D401E2085608D65
:100E9000401E60853D4846F2A8110068B0FBF1F0A5
:100EA000C0EBC00000EB80000090401E009007D017
:100EB00020684069C04340070DD50098F5E727E05A
:100EC00044F8305F6773A573206940F0200020610B
:100ED00062B625731CE02068016841F4007101606E
:100EE00020680069616A0870606A401C6062218D38
:100EF000491E2185618D491E618562B62168096997
:100F0000017026E032464146204601F0EFF818B164
:100F1000012007B0BDE8F08F20680069616A0870A1
:100F2000606A401C6062208D401E81B22185608D08
:100F3000401E608520684269D243520712D40329BB
:100F400003D1016821F48061016020680069616A51
:100F50000870606A401C6062208D401E2085608D94
:100F6000401E6085208D00287FF464AF84F83D70BA
:100F700084F83E5084F83C50CBE70220C9E70000DB
:100F8000020010000000FFFF040001000C00002020
:100F90002DE9FF4F83B09A46DDE911979346044649
:100FA000DDF84080FFF7FCFD054694F83D00202861
:100FB0007FD11923012240492046009500F0F0FF1F
:100FC000002876D194F83C00012872D0012084F8E2
:100FD0003C0020680168C90703D1016841F00101A4
:100FE00001602068016821F400610160212084F81B
:100FF0003D00402084F83E0000262664C4F824808A
:10100000A4F82A90608D20852C48E062CDE9007517
:1010100053465A462046049900F042FF70B930E02A
:101020002A463946204601F099F858B1206C042828
:1010300004D12068016841F400710160012007B00B
:10104000BDE8F08F606A216800780861606A401C22
:101050006062218D491E89B22185628D521E628592
:1010600022685369DB435B070BD469B100781061D8
:10107000606A401C6062208D401E2085608D401E8D
:101080006085208D0028CBD12A463946204600F0C5
:101090005BFF0028CAD154F83D0B016841F4007190
:1010A0000160202004F81E09E67766770020C6E775
:1010B000FFE70220C3E70000020010000000FFFF6E
:1010C00010B586B000210091019102910391006852
:1010D0000F4988421AD10F4CA06940F00800A06166
:1010E000A069694600F008000490C020009012201A
:1010F0000190032003900848FFF75CFCE06940F48E
:101100000010E061E06900F40010049006B010BD2A
:101110000054004000100240000C01400248816869
:10112000027811448160704700000020074810B524
:10113000016841F010010160032000F075F80F20F4
:1011400000F006F800F024F8002010BD0020024056
:1011500070B50D4D04464FF47A712878B1FBF0F06C
:101160000A490968B1FBF0F000F0B6FB48B9102C51
:1011700007D200222146501E00F036F800206C6095
:1011800070BD012070BD0000000000200C00002098
:101190000C4808B5816941F001018161816901F064
:1011A00001010091C16941F08051C161C06900F045
:1011B000805000900448416821F0E06141F00071E6
:1011C000416008BD0010024000000140002809DB1A
:1011D00000F01F02012191404009800000F1E02051
:1011E000C0F8001170470000F0B40E4B1B680C46AD
:1011F000C3F30223C3F10705042D00D90425191DEB
:10120000072901D2002300E0DB1E012606FA05F1C2
:10121000491E214099409E40761E16403143F0BC45
:1012200001F01EBA0CED00E0064900F00702086864
:101230004FF6FF03184040EA0220034A10430860BB
:10124000704700000CED00E00000FA05BFF34F8F7F
:1012500005480168054A01F4E06111430160BFF3EC
:101260004F8F00BFFDE700000CED00E00400FA0521
:1012700010B501460020234C012922D0022939D083
:1012800010291DD161682268D20119D51E48C1F309
:101290008342C903805C0AD561681B4AC1F340419F
:1012A000921E515C194AB2FBF1F1484301E0184922
:1012B00048436168490203D440000321B0FBF1F0C8
:1012C00010BD226AC2F30121012903D1920701D581
:1012D000C80310BD022905D1626A920702D549F6FA
:1012E000404010BD0329FCD121688903F9D54FF294
:1012F000244010BD00F02AF96168C1F38131491C16
:101300004900DBE7001002409437000800127A0021
:1013100000093D002DE9F84305460078354CC0072B
:1013200054D0E0690026C00008D4E06940F0805045
:10133000E061E069012600F0805000902E480168CD
:10134000C90512D40168804641F480710160FFF73D
:1013500027FC074605E000BFFFF722FCC01B6428FE
:1013600023D8D8F80000C005F6D5206A10F44070E4
:1013700021D0A98801F4407181421CD0206A1F4904
:10138000012220F440700A6000220A602062C00737
:1013900011D0FFF705FC074641F2883808E000BF8E
:1013A000FFF7FEFBC11B414502D90320BDE8F883CE
:1013B000206A8007F4D5206A696820F440700843E9
:1013C00020621EB1E06920F08050E061287880073B
:1013D00005D56068A96820F440400843606028781B
:1013E000C00605D56068E96820F4800008436060A5
:1013F0000020DBE700100240007000404004424241
:101400002DE9F0470F46050061D0434E306800F0EB
:101410000700B84209D2306820F007003843306036
:10142000306800F00700B84251D128683B4C810772
:1014300012D5400703D5606840F4E060606028780A
:10144000000703D5606840F4605060606068A96878
:1014500020F0F000084360602878C00728D0686852
:10146000012810D02168022810D0890700292EDA1F
:10147000616821F0030101436160FFF791FB804641
:1014800041F288390DE021688903EFE78901EDE732
:10149000FFF786FBA0EB0801494502D90320BDE810
:1014A000F0876068696800F00C00B0EB810FEFD145
:1014B000306800F00700B8420BD9306820F0070010
:1014C00038433060306800F00700B84201D0012096
:1014D000E5E72878400705D56068E96820F4E06012
:1014E000084360602878000706D56068296920F401
:1014F000605040EAC100606000F038F86168084A56
:10150000C1F30311515CC8400649086006480068F1
:10151000FFF71EFE0020C2E700200240001002403C
:10152000A43700080C0000200400002004480549EE
:1015300000684968044AC1F30221515CC840704701
:101540000C00002000100240B43700080448054990
:1015500000684968044AC1F3C221515CC840704721
:101560000C00002000100240B43700080E4A5168F9
:101570000E4801F00C03042B11D0082B0FD10C489E
:10158000C1F38343C903C05C0AD55168084AC1F35B
:101590004041921E515C054A5043B0FBF1F0704748
:1015A00004494843704700000010024000127A00CE
:1015B0008237000800093D002DE9F84F040070D083
:1015C0002078C04DC00749D06868C0F38100012869
:1015D00007D06868C0F38100022809D16868C00399
:1015E00006D52868800339D560680028E7D035E043
:1015F0006068B0F5803F0BD010B1B0F5A02F11D0CE
:10160000286820F480302860286820F4802002E0D8
:10161000286840F480302860606890B1FFF7C0FA15
:1016200006460AE0286840F480202860F0E700BF02
:10163000FFF7B6FA801B642873D828688003F7D5B3
:101640000CE0FFF7ADFA064605E000BFFFF7A8FA89
:10165000801B6428F0D828688003F7D420789A4E3D
:1016600080074FF001094FF0000839D5686810F085
:101670000C0F07D06868C0F38100022809D16868A0
:10168000C00306D42868800714D52069012808D132
:1016900010E02069B0B1C6F80090FFF781FA074664
:1016A00005E00AE1FFF77CFAC01B0228C4D82868CD
:1016B0008007F7D52868616920F0F80040EAC1008A
:1016C00028600DE0C6F80080FFF76AFA074604E0DC
:1016D000FFF766FAC01B022823D828688007F7D4D2
:1016E000207800072CD57948A169D9B1C0F80090BD
:1016F000FFF756FA074604E0FFF752FAC01B02282C
:101700000FD8686A8007F7D571484FF4FA5100681E
:10171000B0FBF1F0009000BF0098411E0091FAD29A
:101720000EE080E0C0F80080FFF73AFA074604E0D8
:10173000FFF736FAC01B022875D8686A8007F7D40D
:101740002078400760D5E8690027C00008D4E86920
:1017500040F08050E861E869012700F08050009077
:101760005C480168C90513D40168834641F480715F
:101770000160FFF715FA824606E000BFFFF710FA96
:10178000A0EB0A0064284ED8DBF80000C005F5D5B0
:10179000E06801280AD008B1052813D0286A20F093
:1017A00001002862286A20F0040002E0286A40F064
:1017B00001002862E06841F2883B98B1FFF7F0F938
:1017C00082460BE0286A40F004002862EEE700BF82
:1017D000FFF7E6F9A0EB0A0159455AD8286A8007B5
:1017E000F6D50CE0FFF7DCF9824605E0FFF7D8F903
:1017F000A0EB0A0159454CD8286A8007F6D41FB1DE
:10180000E86920F08050E861E06988B36968C1F355
:101810008101022944D00228C6F8608004D0FFF775
:10182000BFF9044638E034E0FFF7BAF9074604E0B0
:10183000FFF7B6F9C01B02282BD828688001F7D41F
:10184000206AB0F5803F05D16868A16820F40030B7
:1018500008436860D4E908010843696821F47411F9
:1018600008436860C6F86090FFF79AF9044606E0FE
:1018700025E000BFFFF794F9001B022809D828686B
:101880008001F7D51BE000BFFFF78AF9001B022893
:1018900002D90320BDE8F88F28688001F4D40EE057
:1018A0000128F7D06868226A00F48031914204D19F
:1018B000616A00F47010884201D00120EAE700203C
:1018C000E8E700000010024000004242800442426B
:1018D0000C0000200070004010B5401EB0F1807F69
:1018E00001D3012010BD4FF0E02460610F2160178B
:1018F00000F0B6FE0020A06107202061002010BD8E
:1019000070477047F8B5016804460868CA684B69B3
:1019100010F00F0F4FF0000559D003F0010602F44C
:101920009077374365D0C10705D0D10503D5616CE9
:1019300041F001016164410705D5D90703D0616C0D
:1019400041F002016164810705D5D90703D0616CBC
:1019500041F004016164010707D502F02001314321
:1019600003D0616C41F008016164616C00293AD0D8
:10197000800604D5900602D5204600F047FD206879
:101980004069616CC0F38010090700D460B3204641
:1019900000F015FD20684069400621D5206814300C
:1019A00050E8001F21F0400140E80012002AF5D164
:1019B000E06BA8B16D494163E06BFEF79DFF002825
:1019C00011D0E06B416B01B0BDE8F04008478306E1
:1019D0000FD593060DD52046BDE8F84000F016BDA2
:1019E0002046FFF78EFFF8BD2046FFF78AFF6564AB
:1019F000F8BD266B2023012E7CD1C6067AD5D606EB
:101A000078D508684868009048694FF0020640069B
:101A100040D5E16B086840680004000CE8D0A28D56
:101A20008242E5D9E085886920282DD020680C30D5
:101A300050E8001F21F4807140E80012002AF5D11F
:101A40002068143050E8001F21F0010140E8001226
:101A5000002AF5D12068143050E8001F21F0400121
:101A600040E80012002AF5D184F84230256320684E
:101A70000C3050E8001F21F0100140E80012002A4D
:101A8000F5D1E06BFEF714FF6663A08DE18D401A7F
:101A900081B22AE0A08DE18D401A81B2E08D00284C
:101AA000A6D00029A4D022680C3252E8000F20F4FE
:101AB000907042E80007002FF5D12068143050E8FC
:101AC000002F22F0010240E80027002FF5D184F812
:101AD0004230256320680C3050E8002F22F01002BD
:101AE00040E80023002BF5D166632046FFF708FF8E
:101AF000F8BDFFE705062BD5150629D594F841005A
:101B00002128F5D1A068B0F5805F01D12069B0B17E
:101B1000206A411C2162216800784860E08C401EE8
:101B20000004000CE084E3D12068C16821F080014A
:101B3000C1602068C16841F04001C160D8E7206AF7
:101B40000088C0F308004860206A801C2062E5E736
:101B50004006CDD55006CBD5CA68204622F04002BB
:101B6000CA6084F8413000F003F9C1E7AF230008F0
:101B700070B5040004D094F84100002510B106E0CF
:101B8000012070BD84F84050204600F023F8242046
:101B900084F841002068C16821F40051C1602046EA
:101BA00000F096FC2068016921F4904101612068F1
:101BB000416921F02A0141612068C16841F4005166
:101BC000C1606564202084F8410084F842006563A8
:101BD000002070BD70B586B000240094019402947A
:101BE000039403682B482A4E022103220515B342B1
:101BF00021D1836943F480438361836903F4804383
:101C00000493836943F0040383618069224E00F0EA
:101C1000040004900802CDE90001039269463046B1
:101C2000FEF7C8FECDE90054694630460294FEF73F
:101C3000C1FE06B070BD194EB342FAD1C36943F478
:101C40008023C361C36903F480230493836943F051
:101C5000080383618069CDE9005100F00800CDE9F7
:101C600003200F4D69462846FEF7A4FEE814CDE98F
:101C70000004694628460294FEF79CFE00221146A5
:101C80002720FFF7B1FA2720FFF7A0FAD1E70000DD
:101C900000380140001002400008014000480040A8
:101CA000000C014090F84230202B01D002207047F8
:101CB00021B11AB10023036300F066BC0120704714
:101CC0000249884201D101F02DB870474C01002033
:101CD0002DE9F843044690F84100984616460D4613
:101CE000202802D00220BDE8F88385B17EB1002013
:101CF0006064212084F84100FEF752FFA6848146EB
:101D0000E684A0682027B0F5805F02D003E00120C0
:101D1000E9E7206910B12E4600250EE000260CE010
:101D20008021204600F04BFCA8B9C6B116F8010B83
:101D300021684860E08C401EE084E08C4B464FF008
:101D40000002CDF800800028EAD14FF04001204683
:101D500000F035FC40B184F841700320C3E735F84A
:101D6000020BC0F30800E3E784F841700020BAE7F3
:101D70007047FEE701684A69D24352050FD46FF4F9
:101D800080624A61002140F8301F20224273817333
:101D9000026942F0040202610173012070470020D1
:101DA000704700002DE9F84F0446006889460B9DF6
:101DB00001689846174641F4806101602068016817
:101DC00041F48071016000954FF0011B00225946DB
:101DD00020460A9B00F0E4F84FF4007A40B12068F6
:101DE0000068C00501D5C4F840A00320BDE8F88F05
:101DF000216809F0FE0008612B46284920460A9A0E
:101E000000F016F9F0BB20684169806900902A460D
:101E100020460A9900F0A2F940B1206C04283AD17A
:101E20002068016841F40071016034E0FEB2B8F14D
:101E3000010F09D02168380A08612A4620460A990C
:101E400000F08CF90028E8D1206806612A46204677
:101E50000A9900F083F90028DFD12068016841F475
:101E60008071016000950022594620460A9B00F0CF
:101E700097F80028B3D1216809F0FF0040F0010075
:101E8000086100E007E02B46044920460A9A00F06A
:101E9000CFF80028AAD00120A8E700000200010026
:101EA0002DE9F843044600680D46DDE9089701680E
:101EB0009846164641F4807101604B4600224FF06F
:101EC00001112046009700F06BF848B120680068C7
:101ED000C00502D54FF4007020640320BDE8F883EC
:101EE000216805F0FE0008613B464A461549204638
:101EF00000F09EF888B920684169806900903A46F0
:101F00004946204600F02AF948B1206C042804D143
:101F10002068016841F4007101600120DEE7F5B23C
:101F2000B8F1010F09D02168300A08613A464946E4
:101F3000204600F013F90028E7D120680561002051
:101F4000CCE700000200010070B516460D460446BD
:101F50001EE02046FFF70EFF08B1012070BD681C8F
:101F600016D0FEF71DFE801BA84200D885B9206858
:101F70004069C04340070BD5002044F8300F2021B2
:101F80006173A073216941F0200121612073E4E7AE
:101F900020684069C0434007DBD4002070BD0000CA
:101FA0002DE9F047984617460D460446C1F307460B
:101FB000DDF820902AE000BFB8F1FF3F26D0FEF701
:101FC000EFFDA0EB0901414502D8B8F1000F1DD18A
:101FD0002068012E16D0806925EA00000004000C5C
:101FE00012D00020B84211D1002044F8300F202137
:101FF0006173A073216941F02001216120730120E8
:10200000BDE8F0874069E7E70120EBE72068012E93
:102010000AD0806925EA00000004000C06D00020E8
:10202000B842C9D00020EBE74069F3E70120F7E7A9
:102030002DE9F047984616460D4604464FF0000934
:102040004FF0200AC1F3074723E020684069C043EE
:10205000400515D42068016841F4007101602168D1
:102060006FF480604861C4F8309084F83DA084F833
:102070003E90216C41F00401216484F83C9021E001
:10208000701C06D0FEF78CFDA0EB0800B04203D810
:1020900016B1012F1FD021E02068012F15D08069D3
:1020A00025EA00000004000C18D000BF44F8309F5F
:1020B00084F80DA084F80E90216941F0200121617F
:1020C00084F80C900120BDE8F087406925EA000003
:1020D0000004000CEAD12068406901E020688069B2
:1020E00025EA00000004000CAFD1ECE72DE9F04137
:1020F000002590460E460446202728E04069C0434C
:10210000C0060CD454F8301B6FF01000486144F83E
:1021100010596777A577206A2062257714E0FEF7CB
:102120003FFDA0EB0800B04200D886B920684069A6
:10213000C04340060BD544F8305F6773A573206930
:1021400040F02000206125730120BDE8F081206867
:102150004169C9434906D1D40020F6E770B5164657
:102160000D4604461EE02046FFF704FE08B101209C
:1021700070BD681C16D0FEF713FD801BA84200D866
:1021800085B920684069C04300060BD5002044F89B
:10219000300F20216173A073216941F0200121617A
:1021A0002073E4E720684069C0430006DBD40020C8
:1021B00070BD00003EB500241148009401940294C3
:1021C0000E498460016004730475012505614FF4B4
:1021D00060214460C161FEF789F908B1FEF796F805
:1021E00007200094CDE9015069460548FEF7FCF848
:1021F000002801D0FEF78AF83EBD0000002401400F
:102200008000002070B586B0002418480094019426
:1022100002940394816941F020018161816901F098
:1022200020010491816941F004018161816901F01B
:1022300004010491816941F00801816180690122F2
:1022400000F008000A4E1503049029463046FEF7B8
:10225000A1FC01200095CDE901040220039069460C
:102260003046FEF7A7FB06B070BD0000001002402C
:10227000000801400D4810B50B4901600C49416050
:1022800000214FF480428160C0E903124161816105
:10229000C1610162FEF78AFC002803D0BDE810404E
:1022A000FEF734B810BD000000540040B00000201C
:1022B000A08601000C4810B50A4901604FF4E131D5
:1022C0004160002181600C22C160C0E9041281617B
:1022D000C161FFF74DFC002803D0BDE81040FEF7B8
:1022E00015B810BD00380140040100200C4810B59D
:1022F0000A4901600B494160002181600C22C160E4
:10230000C0E904128161C161FFF732FC002803D0EB
:10231000BDE81040FDF7FABF10BD000000480040C6
:102320004C01002040420F00FEE7FEE77047704777
:10233000FEF7F4BE30B593B028216846FDF71BFFC9
:1023400014210AA8FDF717FF002501200F9510950D
:102350001195010412958DE8230004904FF4E010CC
:10236000CDE90810022407946846FFF725F908B163
:1023700072B6FEE70AA90F2081E831004FF48060B1
:10238000CDE90D0502210AA8FFF73AF808B172B6A7
:10239000FEE74FF4004011900F940FA8FEF7BAFF2C
:1023A000002801D072B6FEE713B030BD704710B5FB
:1023B000406A0021C185C184FFF7A3FA10BD0168FE
:1023C0000C3151E8002F22F4907241E80023002BD9
:1023D000F5D10168143151E8002F22F0010241E8E3
:1023E0000023002BF5D1016B012909D101680C31C3
:1023F00051E8002F22F0100241E80023002BF5D114
:10240000202180F8421000210163704708B590F840
:102410004210222901D0022008BD82684FF4805367
:102420009A4201D1016921B1816A9A421BD04AB115
:102430000AE00268816A5268C2F308020A80816A6F
:10244000891C08E0026972B10268526802F07F02DA
:102450000A70816A491C8162C18D491E0904090CF8
:10246000C18503D01BE002685268F1E70168CA68C1
:1024700022F02002CA600168CA6822F48072CA6031
:1024800001684A6922F001024A61202180F8421065
:1024900000214163026B012A03D0FFF711FC0020E9
:1024A00008BD016301680C3151E8002F22F01002D1
:1024B00041E80023002BF5D101680A68D20602D555
:1024C0000A6849680091818DFFF71AFAE7E7000072
:1024D00070B5044600680169E26821F44051114377
:1024E00001612169A0680843616908432168CA68DD
:1024F00041F20C639A430243CA6020684169A269B1
:1025000021F44071114341611E492068884202D183
:10251000FFF71CF801E0FFF709F800EBC00101EB41
:102520000012606864218000B2FBF0F3B3FBF1F3AA
:102530006FF018067343B2FBF0F5B2FBF0F605EB53
:102540008305322303EB0515B5FBF1F5B6FBF1F678
:1025500005F0F00505EB0615B2FBF0F6B2FBF0F066
:10256000B0FBF1F06FF01802504306EB800003EB74
:102570000010B0FBF1F0216800F00F0028448860E3
:1025800070BD00000038014081628285C285002153
:102590004164222180F84210016921B10168CA68B2
:1025A00042F48072CA6001684A6942F001024A61DD
:1025B0000068C16841F02001C160002070472DE92A
:1025C000F843984617460D460446089E24E0701CC2
:1025D00022D0FEF7E5FAA0EB0800B0421AD8CEB13F
:1025E0002068C168490717D5802D15D0402D13D01C
:1025F0000168C94309070FD40168002540680090AD
:102600002046FFF7DCFE0820606484F8405001207B
:10261000BDE8F8830320FBE72068006835EA000086
:1026200004D00020B842D2D00020F1E70120F9E721
:102630000148FFF767B900004C010020FEE70000E9
:102640000FB4054B10B503A9044A029800F028F80E
:1026500010BC5DF814FB000059320008280000206F
:102660000907090E002804DB00F1E02080F80014BF
:10267000704700F00F0000F1E02080F8141D704753
:1026800002E008C8121F08C1002AFAD1704770473B
:10269000002001E001C1121F002AFBD17047000099
:1026A0002DE9FF4F8DB00F460546002606E0252890
:1026B0000BD0DDE90F1290476D1C761C287800289E
:1026C000F5D111B03046BDE8F08F0024A246A146F6
:1026D0000122EC4900E0044315F8013F203B02FAD7
:1026E00003F00842F7D128782A2810D06FF02F0283
:1026F0002878A0F13001092914D80AEB8A0102EBED
:10270000410144F0020400EB010A6D1CF0E701CF27
:102710005FEA000A03D544F40054CAF1000A44F009
:1027200002046D1C28782E2817D115F8010F44F0EB
:1027300004042A280ED06FF02F022878A0F130016F
:1027400009290AD809EB890102EB410100EB0109D3
:102750006D1CF2E757F8049B6D1C28786C280FD08D
:1027600006DC4C2817D068280DD06A2814D104E064
:10277000742810D07A280FD10DE044F400140AE038
:1027800044F4801401E044F440146978814202D199
:1027900004F580146D1C6D1C2A786E2A1FD00CDC89
:1027A000632A31D004DC002A8BD0582A11D1A3E04F
:1027B000642A68D0692A0CD165E0732A2ED004DC23
:1027C0006F2A73D0702A04D19BE0752A6FD0782AC3
:1027D0006ED01046DDE90F129047761C50E1C4F32D
:1027E0000250022806D0032809D0042801CF09D0BE
:1027F000066045E101CFF117C0E9006140E101CF7A
:1028000006803DE106703BE117F8040B8DF80000EF
:1028100000208DF80100EB46012003E057F804BBCF
:102820004FF0FF3061074FF0000102D40DE008F1D6
:102830000101884649450FDA8045F8DB1BF808108E
:102840000029F4D108E008F1010188468142FADB51
:102850001BF808100029F6D1DDE90F23AAEB0800C8
:102860008146214600F036F9304400EB080604E0CA
:10287000DDE90F121BF8010B9047B8F10108F7D200
:1028800021464846F7E00A21C4F302534FF0000BFB
:102890000891022B04D001CFC117032B09D00AE005
:1028A000FF1D27F00707F7E8020108E032E01FE00C
:1028B00020E000B2C117042B01D140B2C117031EA2
:1028C00071F1000307DA4FF0000CD0EB0C006CEB59
:1028D00001012D2302E0230504D52B238DF824309C
:1028E000012303E0E30701D02023F7E7984658E0EF
:1028F0000A2110E010210EE010204FF0000B08908C
:102900000CE010214FF0000B44F004044FF00809D4
:10291000089103E008214FF0000B0891C4F3025323
:10292000022B04D001CF0021032B06D006E0FF1DAF
:1029300027F00707F7E8020103E080B2042B00D17B
:10294000C0B24FF0000823072BD5702A07D0DDF85E
:1029500020C08CF0100C5CEA0B0C05D00EE040237C
:102960008DF82430012308E050EA010306D030231B
:102970008DF824308DF8252002239846DDF820C0FC
:102980008CF0080C5CEA0B0C0BD150EA010301D16E
:10299000630706D530238DF824304FF00108A9F1E4
:1029A0000109582A04D038A20B9208AA0A920BE017
:1029B0003AA2F9E75B46089AFDF7E8FB0B9B9B5CA4
:1029C0000A9A521E0A92137050EA0102F2D10A9832
:1029D000ADEB000000F1200B600702D524F4803439
:1029E00001E04FF00109D94502DDA9EB0B0000E041
:1029F000002000EB0B0141440890AAEB010AE00320
:102A000006D4DDE90F232146504600F063F8064462
:102A10004FF0000908E009A911F80900DDE90F12DB
:102A2000904709F10109761CC145F4DBE0030CD5A0
:102A3000DDE90F232146504600F04CF8064404E03F
:102A4000DDE90F1230209047761C0899481E089047
:102A50000029F5DC08E00A980A990078491C0A91D7
:102A6000DDE90F129047761CBBF10001ABF1010BC1
:102A7000F1DC21465046DDE90F2300F019F8064449
:102A80006D1C1BE6092801003031323334353637EE
:102A900038396162636465660000000030313233AA
:102AA000343536373839414243444546000000004A
:102AB0002DE9F041044600251E461746880404D43B
:102AC00005E039462020B0476D1C641EF9D5284624
:102AD000BDE8F0812DE9F041044600251E469046F0
:102AE000C80301D5302700E02027880404D505E07D
:102AF00041463846B0476D1C641EF9D52846BDE8EE
:102B0000F08100002DE9F04FDFF8C081044689B064
:102B1000807888F80000E6780D4688F80160217911
:102B20006B4F88F80210012919D0FF254FF00009DA
:102B3000022921D0032961D083297BD194F805B0E3
:102B4000A57920216846FDF716FB691C361FB6FBE8
:102B5000F1F1072001F0FF080026EA46B2E000F09C
:102B600075FC002866D1386809B02A462146BDE8C0
:102B7000F04F6423FFF7ACB800F068FC002879D16F
:102B800098F80100042875D16179A3798DF8005077
:102B90008DF8015098F800006E468DF802008DF80F
:102BA0000490721D00F068F9040063D0A01C8DF839
:102BB000030000210220621D04E0335C401C194424
:102BC00089B2C0B29042F8D3C8433119487141A0CC
:102BD000FFF736FD0025B046A61D06E018F80510E3
:102BE00040A0FFF72DFD6D1CEDB2B542F6D33FA01E
:102BF000FFF726FD6423A21D386838E0F61E94F81E
:102C000005B0F1B28A46FE2837D00B460026224690
:102C1000594600F0B5FC8DF800508DF8015098F839
:102C200000008DF8020002208DF803008DF804905A
:102C30006D4600E01EE0295C401C3144C0B28EB2FB
:102C40000528F6D3F0438DF8050029A0FFF7F8FC1E
:102C5000002424A0295DFFF7F3FC641CE4B2062CD9
:102C6000F7D322A0FFF7ECFC6423386806226946FC
:102C7000FFF72EF809B0BDE8F08F01255346224634
:102C80005946284600F07CFC6D1CEDB20A2DF5D9A2
:102C9000F0E700BF14F80090401C87B2202168467E
:102CA000FDF769FAE1192A460AF10600FDF74AFA2A
:102CB0002B466A465946484600F062FC7819761C55
:102CC00080B2F6B24645E5D3D4E7000025000020E7
:102CD000000400203078303220436C69656E742027
:102CE0003A20000025303258200000000A00000081
:102CF0003078303320436C69656E74203A200000D0
:102D000010B5074C84E807001046FDF701FB00F002
:102D100009F9606800F0ECF9012800D0002010BD2E
:102D2000000400202DE9F0473A4C3B4F234694F82D
:102D300000C0986893F803905D78014609EB05029E
:102D40009B780026401C4FF0060AD2B2BCF1070F58
:102D500042D2DFE80CF0040F151F2E364A00FF2D7B
:102D60003AD1E67040212C48FDF705FA3D7001206C
:102D7000A06024E0FF2D1AD17D54A06002201EE047
:102D80006B1E092B01D9FE2D11D17D54A060E2707C
:102D9000032014E07D54A0600420E270022D03D9CA
:102DA000A5F10205A5700AE001D1A67007E0267022
:102DB00012E07D54A060E27063B14FF00500207016
:102DC0000AE07D54A060A3F10103E27013F0FF005C
:102DD000A07001D184F800A066706068BDE8F0477B
:102DE0000C490122491CFEF75DBF7D54A0606FEACB
:102DF0000900C0B2A842DAD10749402201F14000DF
:102E000000F057F90028D2D1402104A0FFF718FCA8
:102E1000CDE700001800002094010020777269744B
:102E2000652066616C73652025640D0A0000000052
:102E300010B5084C4FF480716060074800F004F949
:102E400030B10122611C6068FEF72CFF002010BD2C
:102E5000012010BD18000020D40100200A4610B542
:102E60000146044800F008F908B1002010BD012017
:102E700010BD0000D40100202DE9F05F1D469246F0
:102E80000C46834600F060FB012808D0DFF88C80F8
:102E90000121ABF1010088F800100A2802D30020BC
:102EA000BDE8F09F4FF00009162C06D860191628CF
:102EB00008D9C4F11700C5B204E0292C02D288F861
:102EC0000090ECE7002623E0A4F11200032804D3CD
:102ED0001E38082801D3422C02D90AF8069013E0C4
:102EE0000AEB06072146584600F08EFA01460122F9
:102EF0000B4B002001EB000C13F80CC007F800C0CE
:102F0000401CC0B29042F5D3641C761CE4B2F6B209
:102F1000AE42D9D388F800902846C1E724000020AB
:102F2000E801002030B58BB0142219A101A8FDF7EB
:102F300009F914221BA106A8FDF704F901208DF858
:102F400000006FF01304B625C0B200EB800004EB64
:102F50008001142201A800F0EFFB01236A4605213D
:102F60009DF8000000F028F89DF80000122200EB08
:102F7000C00005EB400106A800F0DEFB9DF8000054
:102F8000401CC0B28DF800000A28DDD90BB030BD5E
:102F9000000501050400005A01000003FF465537F3
:102FA00003E8201000000000000000000000000006
:102FB00000321600000000002DE9F0471D46924641
:102FC0000C46814600F0C0FA012806D01D4F0120B2
:102FD0003870A9F101000A2802D30020BDE8F0876B
:102FE0004FF00008162C06D86019162808D9C4F12D
:102FF0001700C5B204E0292C02D287F80080ECE764
:10300000002618E0A4F11200032804D31E38082873
:1030100001D3422C01D900BF09E02146484600F007
:10302000F3F901460AEB0600012200F085FB641C5F
:10303000761CE4B2F6B2AE42E4D387F800802846AC
:10304000CCE700002400002010B5044691B1481ED2
:1030500001424FF000000DD1C4E90010A060084605
:1030600000F09CF9E060002803D02168FDF783F8A8
:10307000012010BD002010BD30B53AB1D0E90143A8
:103080001B1B0468641E2340934201D2002030BD04
:1030900000230AE04568C468645DCC54D0E900545C
:1030A000641C6D1E2C405B1C44609342F2D30120D3
:1030B00030BD70B54AB1D0E901431C1B03685D1EE9
:1030C0002C401B1B5B1E934201D2002070BD0023CD
:1030D0000AE0D0E90256CC5C745584680568641C2B
:1030E0006D1E2C405B1C84609342F2D3012070BDA6
:1030F00038B5B8B1114C69466060002000F02CFA78
:1031000080B90C21012000F025FB58B99DF8000082
:1031100020F0900040F020018DF80010002000F019
:1031200019FB08B1012038BD0A20FDF731FC012050
:103130002070322000F026F8002038BD100000205A
:103140000F4A13780BB1102801D301207047B4291E
:1031500000D9B4214FF4CD735943B423B1FBF3F13B
:103160005288663111448AB240F22621502A01D297
:10317000502202E08A4200D90A46002100F03EB8FF
:103180001000002038B51B49097829B1A0F11801B9
:1031900040F2DF52914201D3012038BD16490003AD
:1031A000B1FBF0F4641EFF2C01D9FF2402E0032CD4
:1031B00000D203246946002000F0CEF99DF80000FB
:1031C00040F010018DF80010002000F0C3FAE1B2C9
:1031D000FE2000F0BFFA9DF8000020F010018DF8ED
:1031E0000010002000F0B6FA0520FDF7D1FB00200A
:1031F00038BD00001000002040787D011FB5154B40
:103200001C7824B3102822D24FF48054A1421ED23D
:10321000A2421CD2062404EB8000C4B28DF80C102C
:10322000080A8DF80D00100A8DF80E208DF80F0099
:10323000586803AA042150B100926423CDE9011318
:10324000012322468021FDF7A3FE002800D00120A3
:1032500004B010BD1000002013B54FF6FF7301221B
:1032600069460248FEF734FD00981CBD04010020A9
:10327000FDF75CFFFFF75EF8FEF7C4FFFFF71AF8F3
:10328000FEF7F8FFFEF796FFFFF730F820A0FFF7F4
:10329000D7F92A4B28482A492A4A83E80700FFF72A
:1032A0002FFD012804D128A0FFF7CAF9FDF7CEFFB2
:1032B0002148FFF7BDFD012804D12BA0FFF7C0F97D
:1032C000FDF7C4FF1D4D403D1C4840214038FFF72D
:1032D000C5FD0028F8D12CA0FFF7B2F9002405E0C5
:1032E000295D2BA0FFF7ACF9641CE4B2E878001D5F
:1032F000A042F5D828A0FFF7A3F910484021403894
:10330000FFF700FC0D4840214038FCF734FFDBE7B5
:10331000536F66747761726520757064617465209F
:10332000646174653A20323032362F392F323020C2
:1033300031343A30310A00004C0100207400002082
:10334000B000002080000020436F6E74726F6C200C
:10335000696E697469616C697A6174696F6E2066FF
:1033600061696C65640A00004D657373616765206F
:10337000696E697469616C697A6174696F6E2066DF
:1033800061696C65640A0000486F7374203A20001C
:1033900025303258200000000A000000F0B50B3044
:1033A000154D20F007010024144A0FE003688B42FA
:1033B0000BD38B4205D95E1A43184768C3E90067EF
:1033C00000E04368136002C004E0021D106800289A
:1033D000ECD12046002802D1286808B10020F0BDB9
:1033E000064A07481060074A121A22F00702C0E98D
:1033F000002401202860D7E7300000202C000020A6
:103400001404002010060020034610B5002003EB32
:10341000830201EB8202112901D8A2F114001529BF
:1034200001D0162901D1A2F11700A1F1290403EB63
:10343000C30201EB4202062C01D802F18D0038399B
:103440000A2901D802F1850010BD0000FEB506462C
:1034500000200090019002900B2E62D2DFE806F06F
:103460006106080A0C0E101214161800002210E053
:1034700001220EE002220CE003220AE0042208E00E
:10348000052206E0062204E0072202E0082200E00E
:1034900009220120CDE90020234C07200290694633
:1034A000A068FCF7A1FF98BBA068FDF787F90A2187
:1034B000A068FDF7E5F810B9A068FDF713F8A0685B
:1034C000FDF7DCF900273D46A068FDF777F90A21F2
:1034D000A068FDF7D5F80028A06802D0FDF7CEF966
:1034E0001FE0FCF7FFFF0744A068FDF7C7F96D1C5C
:1034F000EDB2082DE8D3C7F3CF0340F6E4405843BC
:1035000040F6FF71B0FBF1F084B22246314600E094
:1035100007E006A0FFF794F8083CF22C01D8002041
:10352000FEBD0120FEBD0000000400205365727640
:103530006F2025643A202564206D76202056616C2A
:103540003A2025640A00000002480078002800D0D4
:1035500001207047240000203EB50246074840681D
:1035600050B1009164230124CDE901432346802119
:10357000FDF7E0FB002800D001203EBD1000002038
:103580002DE9FF4F87B014460D46921D0798FFF7AF
:1035900013FDA5F12900022877D8C5F13000C0B28B
:1035A0000490C5F13100C0B20390C5F13400C0B23F
:1035B0000190C5F13500C0B20090C5F13200C1B232
:1035C000C5F13300C2B20098235C0198205C43EA45
:1035D00000290398235C0498205C43EA00200290B1
:1035E000A05C615C40EA01280298B421484340F2A3
:1035F000FF31B0FBF1F0C0F1B40000F0FF0A414828
:10360000079910F81170BAEB07050BD0B9F1000F4C
:103610000AD04FF0FF30B8F1000F27D0002D08DDA1
:10362000294607E000BF3EE051460798FFF788FDB6
:1036300039E0694289B2B8FBF1F15FEA010B01D1CF
:103640004FF0010B002D00DD0120002605900AE05F
:103650000598304406B2B819C1B20798FFF770FD5B
:103660005846FDF795F9AE42F2D11CE040F2826275
:10367000B2FBF9F15FEA010B01D14FF0010B002D14
:1036800000DD0120002605900BE038E0059830446D
:1036900006B2B819C1B20798FFF752FD5846FDF7B8
:1036A00077F9AE42F2D11749079A012321F812A007
:1036B0000498382122180798FFF77EFC039801230D
:1036C000221839210798FFF777FC01980123221867
:1036D0003A210798FFF770FC0098012322183B213C
:1036E0000798FFF769FCCDE90098534606A0029AB7
:1036F0000799FEF7A5FF00200BB0BDE8F08F012071
:10370000FAE70000E8030020536572766F20256415
:1037100020706F733D25642C20616E676C653D25BC
:10372000642C2073706565643D25642C2074696D7C
:10373000653D25640D0A000070B50023044C04E0CB
:10374000C55CCE185B1CA555DBB29342F8D370BDA7
:10375000E801002013B50246084884B0406848B12B
:103760006424012305A98DE81A008021FDF710FCCF
:10377000002800D0012006B010BD0000100000207D
:10378000010202030405060708090A0B0C0D0E0FBF
:103790001010010202030405060708090A0B0C0DAC
:1037A0000E0F1010000000000000000001020304D2
:1037B000060708090000000001020304DC370008C6
:1037C00000000020340000008026000810380008A7
:1037D00034000020DC0900009026000801000000F1
:1037E000100000000000000000127A00000000003D
:1037F00000000000000000000000000000000000C9
:1038000000000000000000000000000000000000B8
:04000005080000ED02
:00000001FF
